:1000000012C02CC02BC02AC08BC128C027C026C05C
:1000100025C024C023C022C021C020C01FC01EC0D4
:100020001DC01CC01BC011241FBECFE5D4E0DEBF25
:10003000CDBF11E0A0E6B0E0E6E1F5E002C005903A
:100040000D92A83EB107D9F711E0A8EEB1E001C0CA
:100050001D92AA3EB107E1F78AD15BC2D1CFFC0164
:1000600082EC84BD85B391E0892785BB8081918135
:10007000892B39F080819181019791838083949AB3
:10008000089594980895A99868BB85B3437094E047
:10009000499FA0011124842B85BB000000000000B3
:1000A00085B3837F85BB0895A99A68BB85B34370E8
:1000B00094E0499FA0011124842B85BB000000001F
:1000C000000085B3837F85BB0895CF92DF92FF92B6
:1000D0000F931F93CF93DF9300D0CDB7DEB76C01A2
:1000E000162FF02E6A3790F5443080F56D3320F4EA
:1000F000342F306101E004C01D53342F306202E020
:10010000F6018281181303C08381381789F0632FA9
:100110006F706854402FC6012A833983B4DF402FA3
:10012000612FC601B0DFF6011283398133832A8142
:10013000FF2021F0622F6095402F02C0402F622FD8
:10014000C601B2DFF60182818F5F82830F900F902C
:10015000DF91CF911F910F91FF90DF90CF90089585
:100160000F931F93CF93DF93EC0118EB43E0612FC4
:10017000CE0189DF43E060E0CE0185DF0DE343E09F
:1001800060E0CE0191DF0150D1F71F5F1C3B71F79A
:100190001A821B8243E068EBCE0175DF43E060E02A
:1001A000CE01DF91CF911F910F916DCFCF93DF9350
:1001B000EC018FEF87BB88BB84B38F6084BB85B3B2
:1001C000807F85BB8C9A949A84E085BD82EC84BD47
:1001D00089B7806489BF1982188278942FE788E3F1
:1001E00091E0215080409040E1F700C0000043E0E2
:1001F0006FEACE0148DF43E060EACE0144DFCE0182
:10020000AFDF80EA9FE099838883DF91CF910895E3
:100210009093E9018093E801C9CF5F926F927F923A
:100220008F929F92AF92BF92CF92DF92EF92FF9206
:100230000F931F93CF93DF93EC01662E842EA22E93
:10024000102F762E770C770C770C92E0992E970C66
:10025000880C611106C020E0482D61E0670DCE01D9
:1002600034DF8EE0A89E60011124C601805A9F4FA2
:100270006C01E12CF12CB12CF601EE0DFF1D692D66
:100280006E0D012F2081482DCE011FDF9FEFE91A4F
:10029000F90A87E0E816F10479F789E0582E570C3F
:1002A00020E0482D652DCE0110DF8394611006C03B
:1002B00061E0670D20E0482DCE0107DF8EE08A9DCA
:1002C00060018B9DD00C1124C601805A9F4F6C0198
:1002D000E12CF12CF601EE0DFF1D692D6E0D012FA5
:1002E0002781482DCE01F1DE9FEFE91AF90A87E058
:1002F000E816F10479F720E0482D652DCE01E5DE02
:10030000DF91CF911F910F91FF90EF90DF90CF90F1
:10031000BF90AF909F908F907F906F905F90089567
:100320001F920F920FB60F9211242F933F934F936A
:100330005F936F937F938F939F93AF93BF93EF934D
:10034000FF938091E8019091E90189DEFF91EF919F
:10035000BF91AF919F918F917F916F915F914F91DD
:100360003F912F910F900FBE0F901F901895CF9334
:10037000DF9300D000D0CDB7DEB7CE01019648DFC5
:1003800000E020E040E060E0CE01019646DF21E0A1
:1003900040E061E0CE01019640DF22E040E062E013
:1003A000CE0101963ADF23E040E063E0CE01019602
:1003B00034DF24E040E064E0CE0101962EDF25E04A
:1003C00040E065E0CE01019628DF01E026E040E054
:1003D00066E0CE01019621DF00E027E040E067E023
:1003E000CE0101961ADF28E040E068E0CE010196D8
:1003F00014DF29E040E069E0CE0101960EDF2AE03B
:1004000040E06AE0CE01019608DF01E02BE040E029
:100410006BE0CE01019601DF00E02CE040E06CE0F3
:10042000CE010196FADE2DE040E06DE0CE010196AE
:10043000F4DE2EE040E06EE0CE010196EEDE2FE02D
:1004400040E06FE0CE010196E8DE01E020E141E00E
:1004500060E0CE010196E1DE21E141E061E0CE0104
:100460000196DBDE22E141E062E0CE010196D5DEBD
:1004700023E141E063E0CE010196CFDE24E141E0DB
:1004800064E0CE010196C9DE25E141E065E0CE01E0
:100490000196C3DE26E141E066E0CE010196BDDEB5
:1004A00000E027E141E067E0CE010196B6DE28E1F9
:1004B00041E068E0CE010196B0DE29E141E069E06B
:1004C000CE010196AADE2AE141E06AE0CE01019662
:1004D000A4DE2BE141E06BE0CE0101969EDE20E040
:1004E00041E06CE0CE01019698DE21E041E06DE054
:1004F000CE01019692DE01E022E041E06EE0CE0105
:1005000001968BDE23E041E06FE0CE01019685DEAF
:06051000FFCFF894FFCFBD
:10051600F8FC060206FCF81F3F6040603F1F00081B
:100526000CFEFE00000000007F7F0000080C0602A3
:1005360086FCF86070584E474140080C0682C67C1F
:100546003818386040613F1E0080F87EFEFE001CB1
:100556001F13107F7F107E7E4242C28606183860C7
:1005660040603F1FE0F89C868200001F3F614061AB
:100576003F1E060602C2F23E0E00007C7F0300000C
:10058600387CC682C67C381E3F6140613F1E78FCBF
:10059600860286FCF8004041613D1F0300E0F81C1E
:1005A60004FEFE7E7F0504047F7FFEFE82C6FC38C5
:1005B600007F7F4040613F1EF8FC0602060C081FC4
:1005C6003F6040603818FEFE020206FCF87F7F405E
:1005D60040603F1FFEFE42424206067F7F4040408B
:1005E6006060FEFE82828206067F7F0000000000B9
:1005F60000000000000000000000000000000000F5
:100606000000000000000060600000004040404024
:100616004040400202020202020200000000000006
:1006260000412214081422410000000000000003CB
:100636000C3040300C030000000000000046494921
:10064600494949310000008060180660180601001B
:100656000000000000E00000000101010F0101019F
:10066600E0E0000000E0E00F0F0000000F0FE0E008
:10067600E0E0E0E0E00F0F0F0F0F0F0FE0E0C0C06B
:100686008080000F0F070703030100000000000031
:08069600000101010101010155
:00000001FF
