:1000000019C033C032C031C00BC72FC02EC02DC0A5
:1000100066C62BC02AC029C028C027C026C025C05C
:1000200024C023C022C0D2C293C237C233C238C256
:100030003AC269C211241FBECFE5D4E0DEBFCDBFF6
:1000400011E0A0E6B0E0E2E3F1E102C005900D921C
:10005000A83FB107D9F711E0A8EFB1E001C01D92A8
:10006000AC3FB107E1F7D5D762C8CACF682341F0EA
:100070008F70282F30E050E081E02417350709F019
:1000800080E00895CF93DF93EC0150D6BE01CE01FE
:100090004496BDD3BE01CE014A96E9D6CE018396E1
:1000A000D4D2BE01CE01849664D7CE018D96DF9165
:1000B000CF91A9C5AF92BF92CF92DF92EF92FF92FC
:1000C0000F931F93CF93DF935C01F62E662331F0DD
:1000D00081E092E0691380E0E82E02C0EE24E39410
:1000E00065018DE2C80ED11CC601D8D5E501649624
:1000F000082F112707FD109524E040E060E0CE01B5
:1001000074D411E0F11010E0012F23E140E064E02D
:10011000CE018FD322E140E065E0CE018AD31111F8
:1001200006C081E093E0F91280E0E82E02C0EE24E0
:10013000E394C6019FD597FD03C0C6019BD505C0BA
:10014000C60198D59195819591098C0124E040E0F4
:1001500066E0CE01E5D4C50183967CD2082F10E07D
:10016000E12C23E040E06BE0CE013FD400E024E14D
:1001700040E06EE0CE015DD3DF91CF911F910F91F2
:10018000FF90EF90DF90CF90BF90AF900895BF9217
:10019000CF92DF92EF92FF920F931F93CF93DF9353
:1001A0006C01B62EFC0184A5E6016496813041F015
:1001B00060F0823091F401E0601300E02AE109C0B0
:1001C00001E0601300E028E104C001E0601300E0FA
:1001D00029E141E060E0CE012CD3FF24F394BF106D
:1001E000F12C0F2D20E141E061E0CE0122D3F60198
:1001F00082A5082F10E0EF2C22E041E062E0CE0162
:100200009BD30F2D26E141E064E0CE0112D3F11023
:1002100006C081E0F4E0BF1280E0E82E02C0EE24C8
:10022000E394F60183A5082F10E022E041E065E0A9
:10023000CE0182D30F2D23E141E067E0CE01F9D258
:10024000F11006C081E0F5E0BF1280E0E82E02C0A8
:10025000EE24E394F60181A590A5891B082F10E0F8
:1002600022E041E068E0CE0167D30F2D25E141E0B7
:100270006AE0CE01DED227E141E06BE0CE01D9D2C7
:10028000F11006C081E0F6E0BF1280E0E82E02C067
:10029000EE24E394F60180A5082F10E022E041E06F
:1002A0006CE0CE0149D30F2D25E141E06EE0CE0197
:1002B000C0D2DF91CF911F910F91FF90EF90DF900F
:1002C000CF90BF900895EF92FF920F931F93CF931B
:1002D000DF93EC0198D58C017E012AE1E20EF11C3E
:1002E000C701EAD58AA1807F39F4CE018CD5801B65
:1002F000910B8C329140A0F3DF91CF911F910F9120
:10030000FF90EF9008958F929F92AF92BF92CF92FD
:10031000DF92EF92FF920F931F93CF93DF931F9281
:10032000CDB7DEB77C0110E09AE0B92E2CE1C22EE9
:100330003FE0D32E470184E1880E911C812F6B2D65
:1003400085D6082F812F6C2D81D6292F812F6D2DD9
:100350007DD6482F692FC4016CD21F5F1E3171F703
:10036000B12C10E06701EAE1CE0ED11C8FE0A82E7F
:10037000C601A2D5382F807F09F1812F6A2D66D65C
:1003800000E0232F22952F70482F692FC401398355
:1003900050D21F5F39811E3108F010E0232F2F70DB
:1003A000812F6A2D53D600E0482F692FC40141D216
:1003B0001F5F1E3108F010E0C401DDD343E060E8A8
:1003C000F70182A153DE882399F2B394F3E0FB1581
:1003D00078F6C4010F90DF91CF911F910F91FF909C
:1003E000EF90DF90CF90BF90AF909F908F90C1C162
:1003F000EC01B12C6C0184E1C80ED11C7E0184E2B9
:10040000E80EF11C8E01035D1F4F6B2DCE0152DEF5
:100410006B2DCE01BCDECE0156DF8AA1882311F000
:10042000C601A9D3AAA043E060E48A2D1FDE882379
:1004300049F08B2D90E08730910538F7FC01ED5E97
:10044000FF4F0994B11032C041E060E18A2D0EDE09
:10045000882319F063E0C801F5D342E060E18AA186
:1004600005DE882319F062E0C801ECD3AAA041E0C0
:1004700060E28A2DFBDD8111E0C042E060E28A2D5E
:10048000F5DD8111DAC043E060E88AA1EFDD882361
:1004900009F4BBCFE2E0BE2EB8CF73E0B72EB5CFE4
:1004A00065E0B62EB2CF56E0B52EAFCF81E0B812E0
:1004B0002DC041E060E48A2DD9DD882351F08CA560
:1004C000813021F0823029F461E001C060E0C70191
:1004D00099D542E060E48AA1C9DD882351F08CA55A
:1004E000882321F0813029F462E001C061E0C70176
:1004F00089D543E060E88AA1B9DD882309F485CF76
:1005000060E0C7017FD544E0B42E7FCF82E0B8120F
:1005100021C041E060E48A2DA9DD882331F0C801C3
:10052000BDD36FEF680FC80162D342E060E48AA1D7
:100530009DDD882331F0C801B1D361E0680FC801A7
:1005400056D343E060E88AA191DD882309F45DCFAA
:10055000B12C5BCF83E0B8121BC041E060E48A2D70
:1005600085DD882339F0C80185D3BC01615071094C
:10057000C80124D342E060E48AA178DD882309F32E
:10058000C80178D3BC016F5F7F4FC80117D3D9CFA3
:1005900084E0B8121EC041E060E48A2D67DD882344
:1005A00021F06BA56150C70120D542E060E48AA12B
:1005B0005DDD882321F06BA56F5FC70116D543E091
:1005C00060E88AA153DD882309F41FCFBB24B394CC
:1005D0001CCF85E0B81219C041E060E48A2D46DDE9
:1005E000882331F069A5615088A5681BC701DAD45A
:1005F00042E060E48AA13ADD882309F369A56F5FD0
:1006000088A5681BC701CED4DACF86E0B812FDCE2C
:1006100041E060E48A2D2ADD882321F068A561503D
:10062000C701CFD442E060E48AA120DD882339F2FB
:1006300068A56F5FC701C5D4C2CF61E0C80102D30E
:1006400022CFEC0160DECE01D3DE84EC87B987EAED
:1006500086B9089525B184B190E0922BAA2797FD21
:10066000A095BA2F23E0B695A795979587952A95DB
:10067000D1F70895FC0185B391E0892785BB82817C
:100680009381892B39F082819381019793838283AF
:10069000949A089594980895A99868BB85B3437077
:1006A00094E0499FA0011124842B85BB0000000029
:1006B000000085B3837F85BB0895A99A68BB85B385
:1006C000437094E0499FA0011124842B85BB000056
:1006D0000000000085B3837F85BB0895CF92DF9231
:1006E000FF920F931F93CF93DF9300D0CDB7DEB768
:1006F0006C01162FF02E6A3790F5443080F56D337B
:1007000020F4342F306101E004C01D53342F3062D7
:1007100002E0F6018481181303C08581381789F03F
:10072000632F6F706854402FC6012A833983B4DF6A
:10073000402F612FC601B0DFF60114833981358364
:100740002A81FF2021F0622F6095402F02C0402FA8
:10075000622FC601B2DFF60184818F5F84830F9020
:100760000F90DF91CF911F910F91FF90DF90CF906D
:1007700008950F931F93CF93DF93EC0118EB43E0A1
:10078000612FCE0189DF43E060E0CE0185DF0DE31C
:1007900043E060E0CE0191DF0150D1F71F5F1C3BC9
:1007A00071F71C821D8243E068EBCE0175DF43E0E8
:1007B00060E0CE01DF91CF911F910F916DCFCF936C
:1007C000DF93EC018FEF87BB88BB84B38F6084BB62
:1007D00085B3807F85BB8C9A949A2FE788E391E05C
:1007E000215080409040E1F700C0000043E06FEAF4
:1007F000CE0152DF43E060EACE014EDFCE01B9DF29
:1008000080E49FE19B838A83DF91CF910895CF930A
:10081000DF93EC01CB0124E630E0398328831B828F
:100820001A8240EA5FE0BE01C3D2CE01DF91CF91D0
:10083000C6CF5F926F927F928F929F92AF92BF923C
:10084000CF92DF92EF92FF920F931F93CF93DF939C
:10085000EC01662E842EA22E102F762E770C770CAC
:10086000770C92E0992E970C880C611106C020E05D
:10087000482D61E0670DCE0131DF8EE0A89E60015A
:100880001124C6018A599F4F6C01E12CF12CB12C27
:10089000F601EE0DFF1D692D6E0D012F2081482DF3
:1008A000CE011CDF9FEFE91AF90A87E0E816F10490
:1008B00079F789E0582E570C20E0482D652DCE01A0
:1008C0000DDF8394611006C061E0670D20E0482DC4
:1008D000CE0104DF8EE08A9D60018B9DD00C112437
:1008E000C6018A599F4F6C01E12CF12CF601EE0DE7
:1008F000FF1D692D6E0D012F2781482DCE01EEDEE3
:100900009FEFE91AF90A87E0E816F10479F720E089
:10091000482D652DCE01E2DEDF91CF911F910F9121
:10092000FF90EF90DF90CF90BF90AF909F908F900F
:100930007F906F905F9008954F925F927F928F9219
:100940009F92AF92BF92CF92DF92EF92FF920F935E
:100950001F93CF93DF931F92CDB7DEB76C01842E28
:10096000F22E280117FF0AC011E0160F0E2D2BE101
:1009700060DFFA94519441945108612F162F1F0D96
:100980001150912C2AE0A22EB12C9F14E9F099204D
:1009900019F04114510479F0C201B50177D3762ED4
:1009A0000E2D282F482D612FC601798342DF472C59
:1009B0007981572E06C00E2D20E1482D612FC601EA
:1009C00038DF93941150E1CF0F90DF91CF911F91B9
:1009D0000F91FF90EF90DF90CF90BF90AF909F90DE
:1009E0008F907F905F904F9008954F925F926F929B
:1009F0007F928F929F92AF92BF92CF92DF92EF92AF
:100A0000FF920F931F93CF93DF931F92CDB7DEB763
:100A10006C01F42E922E280117FF0AC011E0160F68
:100A20000E2D2BE106DF9A94519441945108612FC9
:100A300021E081E090E03AE0291540F4AC01349FD8
:100A4000C001359F900D11242F5FF6CF892C860EA3
:100A5000481659067CF5782C9A94812C4AE0A42EED
:100A6000B12C891408F04AC01FEF170D51E058153A
:100A700018F441145104A9F0C201B50107D3662E40
:100A80000E2D282F4F2D612FC6017983D2DE462CE3
:100A90007981572E81100BC01EEF170D0E2D21E10D
:100AA00002C00E2D20E14F2D612FC601C2DE8394BE
:100AB000712ED7CF8A9410E03AE0A32EB12C1915ED
:100AC000E9F0112319F04114510479F0C201B50184
:100AD000DDD2762E0E2D282F4F2D682DC60179835D
:100AE000A8DE472C7981572E06C00E2D20E14F2D10
:100AF000682DC6019EDE1F5F8A94E1CF0F90DF91C3
:100B0000CF911F910F91FF90EF90DF90CF90BF900A
:100B1000AF909F908F907F906F905F904F900895CF
:100B2000AF92BF92CF92DF92EF92FF920F931F93FB
:100B3000CF93DF936C01B62EA42EF22EE801F60EB1
:100B4000FB1471F0FA942C2F2F700E2D4A2D6F2D5F
:100B5000C6016FDE54E0D695C7955A95E1F7F0CF00
:100B6000DF91CF911F910F91FF90EF90DF90CF9089
:100B7000BF90AF90089520E43FE1FC0133832283CE
:100B80000895FC0184818DBD83818CBD8281882381
:100B9000A1F090818181992311F08F5F01C0815074
:100BA000818391819370918382B3E92FF0E0E251C8
:100BB000FE4F807F9081892B82BB0895FC01768354
:100BC000658377FF05C0108271956195710907C033
:100BD00081E080836115710511F461E070E0719529
:100BE000619571097483638381E082830895FC01B8
:100BF000611101C01282772767FD709580EF90E048
:100C000045D2CF01DBCFCF93DF93EC019093F90175
:100C10008093F801198268E170E0D0DF81B38F60C2
:100C200081BB82B3807F82BB1FBC83E08EBD8C8181
:100C30008DBD8B818CBD89B7846089BF7894DF912D
:100C4000CF910895FC01611102C0128208956130B4
:100C500019F465817681B2CF623019F481E0808326
:100C600003C0633031F410828FE89DEF9483838357
:100C700062830895FC012281213019F485819681D7
:100C80000895223029F0233031F48FE89DEF089544
:100C900081E792E0089580E090E00895EBDF9C0109
:100CA000442737FD4095542F60EF70E080E090E0DE
:100CB00022D220383105410551055CF420388FEFF0
:100CC0003807480758074CF420E83FEF4FEF5FEF35
:100CD00004C02FE730E040E050E0822F08951F92DB
:100CE0000F920FB60F9211242F933F934F935F9360
:100CF0006F937F938F939F93AF93BF93EF93FF93E4
:100D00008091F8019091F9013CDFFF91EF91BF9143
:100D1000AF919F918F917F916F915F914F913F9193
:100D20002F910F900FBE0F901F901895FC0190937C
:100D3000FB018093FA01138A128A1586148617869E
:100D40001686118A108A84E085BD81EE84BD89B73C
:100D5000806489BF789408951F93CF93DF93EC014B
:100D60008A899B8901969B8B8A8B81EE84BD13E0D7
:100D70002C853D852115310599F08E819F81019645
:100D80009F838E838217930758F01F821E8288816B
:100D90009981DC01ED91FC910190F081E02D0995A4
:100DA000115022961111E4CFDF91CF911F91089538
:100DB000FC0184859585892B51F086859785892B43
:100DC00041F080899189892B31F482E005C080E06F
:100DD00003C081E001C083E0E80FF11DE80FF11DC1
:100DE000178216827183608380EA9FE0BA013AD14C
:100DF0006115710519F075876487089581E090E0A9
:100E0000958784870895FC0122893389A8EEB3E091
:100E100011D120EA3FE040E050E04BD1C9010895F4
:100E20001F920F920FB60F9211242F933F934F935F
:100E30005F936F937F938F939F93AF93BF93EF9342
:100E4000FF938091FA019091FB0186DFFF91EF9172
:100E5000BF91AF919F918F917F916F915F914F91D2
:100E60003F912F910F900FBE0F901F901895FC018E
:100E70007183608312821382148216821582178214
:100E80001086A598AD9A8F98979A0895FC0183B320
:100E900085FB882780F991E08927879B8260938171
:100EA000891741F02281203220F42F5F2283892F7D
:100EB00008958383128208951F93CF93DF93EC01EB
:100EC000E5DF182F8C8181110BC0112341F11F82A6
:100ED0008881998198DF9E838D83812F806119C0DD
:100EE0009F81111104C0911113C0806612C091112D
:100EF00016C08881998187DF2D813E81821B930BEB
:100F0000893B9B4060F081E08F83812F806801C026
:100F100080621C838887DF91CF911F910895812F74
:100F2000F8CFFC019085992329F08281913029F432
:100F3000811103C09598969808958F5F828395815B
:100F4000891740F0128286818F5F86839781891787
:100F500008F0108692818381981710F4969801C04A
:100F6000969A92818481981710F495980895959A8D
:100F70000895FC01CB0126EF31E031832083959861
:100F800096988D9A8E9A128221E0238322E0248300
:100F90002CE02583168224E12783108641E050E06F
:100FA000BF0106CFFC01662321F0643618F063E62A
:100FB00001C061E01086168212828481860F8583CB
:100FC0000895FC01623020F0643618F063E601C039
:100FD00062E010861682128285819481891B860FB9
:100FE00085836483615063830895FC01662321F047
:100FF000643618F063E601C061E010861682128242
:1010000067830895FC016087611102C01682128215
:101010000895CF93DF93CDB7DEB7E4970FB6F8947A
:10102000DEBF0FBECDBFCE0101962CD8CE010196FA
:1010300008DBFFCFA29FB001B39FC001A39F01D0E7
:10104000B29F700D811D1124911D0895991B79E0A7
:1010500004C0991F961708F0961B881F7A95C9F748
:1010600080950895AA1BBB1B51E107C0AA1FBB1F97
:10107000A617B70710F0A61BB70B881F991F5A9524
:10108000A9F780959095BC01CD01089597FB072E97
:1010900016F4009406D077FD08D0E4DF07FC05D0F5
:1010A0003EF4909581959F4F0895709561957F4F7F
:1010B0000895A1E21A2EAA1BBB1BFD010DC0AA1F99
:1010C000BB1FEE1FFF1FA217B307E407F50720F0B1
:1010D000A21BB30BE40BF50B661F771F881F991F2C
:1010E0001A9469F760957095809590959B01AC0175
:1010F000BD01CF010895052E97FB16F400940FD083
:1011000057FD05D0D6DF07FC02D046F408C0509545
:101110004095309521953F4F4F4F5F4F08959095E3
:101120008095709561957F4F8F4F9F4F0895F894EC
:02113000FFCFEF
:10113200000000003A03F8FC060206FCF81F3F60BC
:1011420040603F1F00080CFEFE00000000007F7F91
:101152000000080C060286FCF86070584E474140B9
:10116200080C0682C67C3818386040613F1E008039
:10117200F87EFEFE001C1F13107F7F107E7E42420F
:10118200C2860618386040603F1FE0F89C868200E5
:10119200001F3F6140613F1E060602C2F23E0E0082
:1011A200007C7F030000387CC682C67C381E3F610B
:1011B20040613F1E78FC860286FCF8004041613D9A
:1011C2001F0300E0F81C04FEFE7E7F0504047F7FFF
:1011D200FEFE82C6FC38007F7F4040613F1EF8FC65
:1011E2000602060C081F3F6040603818FEFE02022D
:1011F20006FCF87F7F4040603F1FFEFE42424206EF
:10120200067F7F4040406060FEFE82828206067F4B
:101212007F0000000000000000000000000000004D
:1012220000000000000000000000000000606000FC
:1012320000004040404040404002020202020202DE
:1012420000000000000000412214081422410000A6
:101252000000000000030C3040300C0300000000CE
:1012620000000046494949494931000000806018A0
:101272000660180601000000000000E00000000106
:1012820001010F010101E0E0000000E0E00F0F00AA
:1012920000000F0FE0E0E0E0E0E0E00F0F0F0F0FC3
:1012A2000F0FE0E0C0C08080000F0F0707030301AB
:1012B2000000000000000001010101010101010222
:0812C200040800000000910780
:00000001FF
