:1000000012C02CC02BC02AC0F2C128C027C026C0F5
:1000100025C024C023C022C021C020C01FC01EC0D4
:100020001DC01CC01BC011241FBECFE5D4E0DEBF25
:10003000CDBF11E0A0E6B0E0E8E0F6E002C0059038
:100040000D92AE3EB107D9F711E0AEEEB1E001C0BE
:100050001D92A03FB107E1F7F1D1D4C2D1CFFC018D
:1000600085B391E0892785BB82819381892B39F003
:1000700082819381019793838283949A08959498BF
:100080000895A99868BB85B3437094E0499FA00187
:100090001124842B85BB00000000000085B3837F02
:1000A00085BB0895A99A68BB85B3437094E0499FC6
:1000B000A0011124842B85BB00000000000085B343
:1000C000837F85BB0895CF92DF92FF920F931F939A
:1000D000CF93DF9300D0CDB7DEB76C01162FF02E93
:1000E0006A3790F5443080F56D3320F4342F306159
:1000F00001E004C01D53342F306202E0F601848118
:10010000181303C08581381789F0632F6F70685406
:10011000402FC6012A833983B4DF402F612FC601E7
:10012000B0DFF6011483398135832A81FF2021F065
:10013000622F6095402F02C0402F622FC601B2DFB0
:10014000F60184818F5F84830F900F90DF91CF91B0
:100150001F910F91FF90DF90CF9008950F931F9301
:10016000CF93DF93EC0118EB43E0612FCE0189DFE1
:1001700043E060E0CE0185DF0DE343E060E0CE01C7
:1001800091DF0150D1F71F5F1C3B71F71C821D826C
:1001900043E068EBCE0175DF43E060E0CE01DF9124
:1001A000CF911F910F916DCFCF93DF93EC018FEF24
:1001B00087BB88BB84B38F6084BB85B3807F85BBDE
:1001C0008C9A949A2FE788E391E0215080409040E8
:1001D000E1F700C0000043E06FEACE0152DF43E0E8
:1001E00060EACE014EDFCE01B9DF80E49FE19B8360
:1001F0008A83DF91CF910895CF93DF93EC01CB01F8
:1002000024E630E0398328831B821A8240EA5FE0CB
:10021000BE01C2D0CE01DF91CF91C6CF5F926F9267
:100220007F928F929F92AF92BF92CF92DF92EF9286
:10023000FF920F931F93CF93DF93EC01662E842ED2
:10024000A22E102F762E770C770C770C92E0992E39
:10025000970C880C611106C020E0482D61E0670D05
:10026000CE0131DF8EE0A89E60011124C6018A59BB
:100270009F4F6C01E12CF12CB12CF601EE0DFF1D0E
:10028000692D6E0D012F2081482DCE011CDF9FEFBF
:10029000E91AF90A87E0E816F10479F789E0582E9F
:1002A000570C20E0482D652DCE010DDF83946110A1
:1002B00006C061E0670D20E0482DCE0104DF8EE02E
:1002C0008A9D60018B9DD00C1124C6018A599F4FD5
:1002D0006C01E12CF12CF601EE0DFF1D692D6E0D68
:1002E000012F2781482DCE01EEDE9FEFE91AF90A92
:1002F00087E0E816F10479F720E0482D652DCE015E
:10030000E2DEDF91CF911F910F91FF90EF90DF9090
:10031000CF90BF90AF909F908F907F906F905F90A5
:100320000895FC019093EF018093EE0115861486E9
:1003300017861686118A108A84E085BD81EE84BDF9
:1003400089B7806489BF789408951F93CF93DF9312
:1003500021EE24BDEC0113E02C853D8521153105EE
:1003600099F08E819F8101969F838E8382179307D8
:1003700058F01F821E8288819981DC01ED91FC91E9
:100380000190F081E02D0995115022961111E4CFD2
:10039000DF91CF911F910895FC0184859585892B6C
:1003A00051F086859785892B41F080899189892B29
:1003B00031F482E005C080E003C081E001C083E049
:1003C000E80FF11DE80FF11D17821682718360831B
:1003D00080EA9FE0BA0102D16115710519F07587B5
:1003E0006487089581E090E09587848708951F923F
:1003F0000F920FB60F9211242F933F934F935F9359
:100400006F937F938F939F93AF93BF93EF93FF93DC
:100410008091EE019091EF0198DFFF91EF91BF91F4
:10042000AF919F918F917F916F915F914F913F918C
:100430002F910F900FBE0F901F901895CF93DF93C1
:10044000CDB7DEB768970FB6F894DEBF0FBECDBF4D
:10045000CE01019666DFBE016F5F7F4FCE014396EE
:10046000CBDE00E020E040E060E0CE014396D6DE47
:1004700021E040E061E0CE014396D0DE22E040E0A2
:1004800062E0CE014396CADE23E040E063E0CE01A5
:100490004396C4DE24E040E064E0CE014396BEDE35
:1004A00025E040E065E0CE014396B8DE01E026E0BD
:1004B00040E066E0CE014396B1DE00E027E040E098
:1004C00067E0CE014396AADE28E040E068E0CE0176
:1004D0004396A4DE29E040E069E0CE0143969EDE2B
:1004E0002AE040E06AE0CE01439698DE01E02BE08E
:1004F00040E06BE0CE01439691DE00E02CE040E06E
:100500006CE0CE0143968ADE2DE040E06DE0CE0146
:10051000439684DE2EE040E06EE0CE0143967EDE20
:1005200001E020E141E060E0CE01439677DE21E189
:1005300041E061E0CE01439671DE22E141E062E0FC
:10054000CE0143966BDE23E141E063E0CE014396AA
:1005500065DE24E141E064E0CE0143965FDE25E103
:1005600041E065E0CE01439659DE26E141E066E0D8
:10057000CE01439653DE00E027E141E067E0CE0183
:1005800043964CDE28E141E068E0CE01439646DE2A
:1005900029E141E069E0CE01439640DE2AE141E0F5
:1005A0006AE0CE0143963ADE2BE141E06BE0CE01FA
:1005B000439634DE20E041E06CE0CE0143962EDE2F
:1005C00021E041E06DE0CE01439628DE01E02FE01E
:1005D00041E06EE0CE01439621DEFFCFAA1BBB1B9C
:1005E00051E107C0AA1FBB1FA617B70710F0A61B33
:1005F000B70B881F991F5A95A9F780959095BC0154
:08060000CD010895F894FFCF2D
:10060800000000002F00F8FC060206FCF81F3F60FF
:1006180040603F1F00080CFEFE00000000007F7FC6
:100628000000080C060286FCF86070584E474140EE
:10063800080C0682C67C3818386040613F1E00806E
:10064800F87EFEFE001C1F13107F7F107E7E424244
:10065800C2860618386040603F1FE0F89C8682001A
:10066800001F3F6140613F1E060602C2F23E0E00B7
:10067800007C7F030000387CC682C67C381E3F6140
:1006880040613F1E78FC860286FCF8004041613DCF
:100698001F0300E0F81C04FEFE7E7F0504047F7F34
:1006A800FEFE82C6FC38007F7F4040613F1EF8FC9A
:1006B8000602060C081F3F6040603818FEFE020262
:1006C80006FCF87F7F4040603F1FFEFE4242420624
:1006D800067F7F4040406060FEFE82828206067F81
:1006E8007F00000000000000000000000000000083
:1006F8000000000000000000000000000060600032
:100708000000404040404040400202020202020213
:1007180000000000000000412214081422410000DB
:100728000000000000030C3040300C030000000003
:1007380000000046494949494931000000806018D5
:100748000660180601000000000000E0000000013B
:1007580001010F010101E0E0000000E0E00F0F00DF
:1007680000000F0FE0E0E0E0E0E0E00F0F0F0F0FF8
:100778000F0FE0E0C0C08080000F0F0707030301E0
:0E07880000000000000000010101010101015C
:00000001FF
