:1000000019C033C032C031C0BFC62FC02EC02DC0F2
:100010001AC62BC02AC029C028C027C026C025C0A8
:1000200024C023C022C05DC21EC2C2C1BEC1C3C1A2
:10003000C5C1F4C111241FBECFE5D4E0DEBFCDBFE2
:1000400011E0A0E6B0E0EAEBF0E102C005900D920D
:10005000A83FB107D9F711E0A8EFB1E001C01D92A8
:10006000AC3FB107E1F7A5D726C8CACF682341F056
:100070008F70282F30E050E081E02417350709F019
:1000800080E00895CF93DF93EC0104D6BE01CE014A
:1000900044964DD3BE01CE014A969DD6CE0183969D
:1000A0005CD2BE01CE01849618D7CE018D96DF9129
:1000B000CF915DC5AF92BF92CF92DF92EF92FF9248
:1000C0000F931F93CF93DF935C01F62E662331F0DD
:1000D00081E092E0691380E0E82E02C0EE24E39410
:1000E00065018DE2C80ED11CC6018CD5E501649670
:1000F000082F112707FD109524E040E060E0CE01B5
:1001000004D411E0F11010E0012F23E140E064E09D
:10011000CE011FD322E140E065E0CE011AD31111D8
:1001200006C081E093E0F91280E0E82E02C0EE24E0
:10013000E394C60153D597FD03C0C6014FD505C052
:10014000C6014CD59195819591098C0124E040E040
:1001500066E0CE0175D4C501839607D2082F10E062
:10016000E12C23E040E06BE0CE01CFD300E024E1BE
:1001700040E06EE0CE01EDD2DF91CF911F910F9163
:10018000FF90EF90DF90CF90BF90AF900895BF9217
:10019000CF92DF92EF92FF920F931F93CF93DF9353
:1001A0006C01B62EFC0184A5E6016496813041F015
:1001B00060F0823091F401E0601300E02AE109C0B0
:1001C00001E0601300E028E104C001E0601300E0FA
:1001D00029E141E060E0CE01BCD2FF24F394BF10DE
:1001E000F12C0F2D20E141E061E0CE01B2D2F60109
:1001F00082A5082F10E0EF2C22E041E062E0CE0162
:100200002BD30F2D26E141E064E0CE01A2D2F11004
:1002100006C081E0F4E0BF1280E0E82E02C0EE24C8
:10022000E394F60183A5082F10E022E041E065E0A9
:10023000CE0112D30F2D23E141E067E0CE0189D238
:10024000F11006C081E0F5E0BF1280E0E82E02C0A8
:10025000EE24E394F60181A590A5891B082F10E0F8
:1002600022E041E068E0CE01F7D20F2D25E141E028
:100270006AE0CE016ED227E141E06BE0CE0169D2A7
:10028000F11006C081E0F6E0BF1280E0E82E02C067
:10029000EE24E394F60180A5082F10E022E041E06F
:1002A0006CE0CE01D9D20F2D25E141E06EE0CE0108
:1002B00050D2DF91CF911F910F91FF90EF90DF907F
:1002C000CF90BF900895EF92FF920F931F93CF931B
:1002D000DF93EC014CD58C017E012AE1E20EF11C8A
:1002E000C7019ED58AA1807F39F4CE0140D5801BFD
:1002F000910B8C329140A0F3DF91CF911F910F9120
:10030000FF90EF900895EC01B12C6C0184E1C80ED0
:10031000D11C7E0184E2E80EF11C8E01035D1F4FAB
:100320006B2DCE01C7DE6B2DCE0131DFCE01CBDFD1
:100330008AA1882311F0C601AED3AAA043E060E4ED
:100340008A2D94DE882349F08B2D90E0873091052B
:1003500038F7FC01ED5EFF4F0994B11032C041E067
:1003600060E18A2D83DE882319F063E0C8011ED482
:1003700042E060E18AA17ADE882319F062E0C801D8
:1003800015D4AAA041E060E28A2D70DE8111E0C0A0
:1003900042E060E28A2D6ADE8111DAC043E060E863
:1003A0008AA164DE882309F4BBCF42E0B42EB8CF23
:1003B00033E0B32EB5CF25E0B22EB2CF96E0B92E02
:1003C000AFCF81E0B8122DC041E060E48A2D4EDE4F
:1003D000882351F08CA5813021F0823029F461E02E
:1003E00001C060E0C70192D542E060E48AA13EDE30
:1003F000882351F08CA5882321F0813029F462E014
:1004000001C061E0C70182D543E060E88AA12EDE29
:10041000882309F485CF60E0C70178D584E0B82E41
:100420007FCF82E0B81221C041E060E48A2D1EDE59
:10043000882331F0C801E6D36FEF680FC80168D395
:1004400042E060E48AA112DE882331F0C801DAD3E9
:1004500061E0680FC8015CD343E060E88AA106DE72
:10046000882309F45DCFB12C5BCF83E0B8121BC0A9
:1004700041E060E48A2DFADD882339F0C801AED36B
:10048000BC0161507109C80129D342E060E48AA12E
:10049000EDDD882309F3C801A1D3BC016F5F7F4F55
:1004A000C8011CD3D9CF84E0B8121EC041E060E47B
:1004B0008A2DDCDD882321F06BA56150C70165D54D
:1004C00042E060E48AA1D2DD882321F06BA56F5F52
:1004D000C7015BD543E060E88AA1C8DD882309F441
:1004E0001FCFBB24B3941CCF85E0B81219C041E0E4
:1004F00060E48A2DBBDD882331F069A5615088A5B1
:10050000681BC70111D542E060E48AA1AFDD8823F2
:1005100009F369A56F5F88A5681BC70105D5DACF08
:1005200086E0B812FDCE41E060E48A2D9FDD88238D
:1005300021F068A56150C7010DD542E060E48AA1B1
:1005400095DD882339F268A56F5FC70103D5C2CF57
:1005500061E0C8012BD322CFD6DE24EC27B927E8EF
:1005600026B9369AFC0110820895FC01369910C014
:1005700024B135B1A1E9B0E02DD52AE09695879553
:10058000779567952A95D1F7608386B1806C86B997
:1005900080810895FC0185B391E0892785BB828124
:1005A0009381892B39F08281938101979383828390
:1005B000949A089594980895A99868BB85B3437058
:1005C00094E0499FA0011124842B85BB000000000A
:1005D000000085B3837F85BB0895A99A68BB85B366
:1005E000437094E0499FA0011124842B85BB000037
:1005F0000000000085B3837F85BB0895CF92DF9212
:10060000FF920F931F93CF93DF9300D0CDB7DEB748
:100610006C01162FF02E6A3790F5443080F56D335B
:1006200020F4342F306101E004C01D53342F3062B8
:1006300002E0F6018481181303C08581381789F020
:10064000632F6F706854402FC6012A833983B4DF4B
:10065000402F612FC601B0DFF60114833981358345
:100660002A81FF2021F0622F6095402F02C0402F89
:10067000622FC601B2DFF60184818F5F84830F9001
:100680000F90DF91CF911F910F91FF90DF90CF904E
:1006900008950F931F93CF93DF93EC0118EB43E082
:1006A000612FCE0189DF43E060E0CE0185DF0DE3FD
:1006B00043E060E0CE0191DF0150D1F71F5F1C3BAA
:1006C00071F71C821D8243E068EBCE0175DF43E0C9
:1006D00060E0CE01DF91CF911F910F916DCFCF934D
:1006E000DF93EC018FEF87BB88BB84B38F6084BB43
:1006F00085B3807F85BB8C9A949A2FE788E391E03D
:10070000215080409040E1F700C0000043E06FEAD4
:10071000CE0152DF43E060EACE014EDFCE01B9DF09
:1007200080E49FE19B838A83DF91CF910895CF93EB
:10073000DF93EC01CB0124E630E0398328831B8270
:100740001A8240EA5FE0BE01E7D2CE01DF91CF918D
:10075000C6CF5F926F927F928F929F92AF92BF921D
:10076000CF92DF92EF92FF920F931F93CF93DF937D
:10077000EC01662E842EA22E102F762E770C770C8D
:10078000770C92E0992E970C880C611106C020E03E
:10079000482D61E0670DCE0131DF8EE0A89E60013B
:1007A0001124C6018A599F4F6C01E12CF12CB12C08
:1007B000F601EE0DFF1D692D6E0D012F2081482DD4
:1007C000CE011CDF9FEFE91AF90A87E0E816F10471
:1007D00079F789E0582E570C20E0482D652DCE0181
:1007E0000DDF8394611006C061E0670D20E0482DA5
:1007F000CE0104DF8EE08A9D60018B9DD00C112418
:10080000C6018A599F4F6C01E12CF12CF601EE0DC7
:10081000FF1D692D6E0D012F2781482DCE01EEDEC3
:100820009FEFE91AF90A87E0E816F10479F720E06A
:10083000482D652DCE01E2DEDF91CF911F910F9102
:10084000FF90EF90DF90CF90BF90AF909F908F90F0
:100850007F906F905F9008954F925F927F928F92FA
:100860009F92AF92BF92CF92DF92EF92FF920F933F
:100870001F93CF93DF931F92CDB7DEB76C01842E09
:10088000F22E280117FF0AC011E0160F0E2D2BE1E2
:1008900060DFFA94519441945108612F162F1F0D77
:1008A0001150912C2AE0A22EB12C9F14E9F099202E
:1008B00019F04114510479F0C201B501ABD3762E81
:1008C0000E2D282F482D612FC601798342DF472C3A
:1008D0007981572E06C00E2D20E1482D612FC601CB
:1008E00038DF93941150E1CF0F90DF91CF911F919A
:1008F0000F91FF90EF90DF90CF90BF90AF909F90BF
:100900008F907F905F904F9008954F925F926F927B
:100910007F928F929F92AF92BF92CF92DF92EF928F
:10092000FF920F931F93CF93DF931F92CDB7DEB744
:100930006C01F42E922E280117FF0AC011E0160F49
:100940000E2D2BE106DF9A94519441945108612FAA
:1009500021E081E090E03AE0291540F4AC01349FB9
:10096000C001359F900D11242F5FF6CF892C860E84
:10097000481659067CF5782C9A94812C4AE0A42ECE
:10098000B12C891408F04AC01FEF170D51E058151B
:1009900018F441145104A9F0C201B5013BD3662EED
:1009A0000E2D282F4F2D612FC6017983D2DE462CC4
:1009B0007981572E81100BC01EEF170D0E2D21E1EE
:1009C00002C00E2D20E14F2D612FC601C2DE83949F
:1009D000712ED7CF8A9410E03AE0A32EB12C1915CE
:1009E000E9F0112319F04114510479F0C201B50165
:1009F00011D3762E0E2D282F4F2D682DC601798309
:100A0000A8DE472C7981572E06C00E2D20E14F2DF0
:100A1000682DC6019EDE1F5F8A94E1CF0F90DF91A3
:100A2000CF911F910F91FF90EF90DF90CF90BF90EB
:100A3000AF909F908F907F906F905F904F900895B0
:100A4000AF92BF92CF92DF92EF92FF920F931F93DC
:100A5000CF93DF936C01B62EA42EF22EE801F60E92
:100A6000FB1471F0FA942C2F2F700E2D4A2D6F2D40
:100A7000C6016FDE54E0D695C7955A95E1F7F0CFE1
:100A8000DF91CF911F910F91FF90EF90DF90CF906A
:100A9000BF90AF90089520E43FE1FC0133832283AF
:100AA0000895FC0184818DBD83818CBD8281882362
:100AB000A1F090818181992311F08F5F01C0815055
:100AC000818391819370918382B3E92FF0E0E251A9
:100AD000FE4F807F9081892B82BB0895FC01768335
:100AE000658377FF05C0108271956195710902C019
:100AF00081E08083613782E0780714F461E772E077
:100B00007195619571097483638381E0828308958F
:100B1000CF93DF93EC01611104C01A82DF91CF9172
:100B20000895262F332727FD3095432F532F64EC4C
:100B300074EA80E090E0A3D2211580E838074105EF
:100B4000510564F4211580E838078FEF48075807EE
:100B50004CF420E030E84FEF5FEF04C02FEF3FE7A9
:100B600040E050E0B901CE01DF91CF91B7CFCF93F4
:100B7000DF93EC019093F9018093F80119826AE701
:100B800070E1ACDF81B38F6081BB82B3807F82BBB9
:100B90001FBC83E08EBD8C818DBD8B818CBD89B7E0
:100BA000846089BF7894DF91CF910895FC01611131
:100BB00002C012820895613019F4658176818ECF6A
:100BC000623019F481E0808303C0633031F4108215
:100BD0008FE89DEF9483838362830895FC012281D3
:100BE000213019F4858196810895223029F023302F
:100BF00031F48FE89DEF089581E792E0089580E059
:100C000090E00895EBDF9C01442737FD4095542F79
:100C100064EC74EA80E090E032D22038310541057E
:100C200051055CF420388FEF3807480758074CF41B
:100C300020E83FEF4FEF5FEF04C02FE730E040E0E8
:100C400050E0822F08951F920F920FB60F92112439
:100C50002F933F934F935F936F937F938F939F93C4
:100C6000AF93BF93EF93FF938091F8019091F901B7
:100C700018DFFF91EF91BF91AF919F918F917F917D
:100C80006F915F914F913F912F910F900FBE0F90F9
:100C90001F901895FC019093FB018093FA01138A31
:100CA000128A1586148617861686118A108A84E0A1
:100CB00085BD81EE84BD89B7806489BF789408952D
:100CC0001F93CF93DF93EC018A899B8901969B8BBD
:100CD0008A8B81EE84BD13E02C853D85211531057D
:100CE00099F08E819F8101969F838E83821793074F
:100CF00058F01F821E8288819981DC01ED91FC9160
:100D00000190F081E02D0995115022961111E4CF48
:100D1000DF91CF911F910895FC0184859585892BE2
:100D200051F086859785892B41F080899189892B9F
:100D300031F482E005C080E003C081E001C083E0BF
:100D4000E80FF11DE80FF11D178216827183608391
:100D500080EA9FE0BA014AD16115710519F07587E3
:100D60006487089581E090E0958784870895FC0169
:100D700022893389A8EEB3E02DD120EA3FE040E09C
:100D800050E05BD1C90108951F920F920FB60F92E8
:100D900011242F933F934F935F936F937F938F9380
:100DA0009F93AF93BF93EF93FF938091FA0190913C
:100DB000FB0186DFFF91EF91BF91AF919F918F91E2
:100DC0007F916F915F914F913F912F910F900FBE47
:100DD0000F901F901895FC0171836083128213821B
:100DE00014821682158217821086A598AD9A8F9864
:100DF000979A0895FC0183B385FB882780F991E0D9
:100E00008927879B82609381891741F02281203254
:100E100020F42F5F2283892F0895838312820895FF
:100E20001F93CF93DF93EC01E5DF182F8C818111A5
:100E30000BC0112341F11F828881998198DF9E8325
:100E40008D83812F806119C09F81111104C0911180
:100E500013C0806612C0911116C08881998187DF06
:100E60002D813E81821B930B893B9B4060F081E08A
:100E70008F83812F806801C080621C838887DF9107
:100E8000CF911F910895812FF8CFFC019085992370
:100E900029F08281913029F4811103C095989698A8
:100EA00008958F5F82839581891740F01282868131
:100EB0008F5F86839781891708F0108692818381DE
:100EC000981710F4969801C0969A92818481981789
:100ED00010F495980895959A0895FC01CB0126EF9A
:100EE00031E031832083959896988D9A8E9A12825C
:100EF00021E0238322E024832CE02583168224E151
:100F00002783108641E050E0BF0106CFFC018085B9
:100F1000811104C0662311F016821282608761116C
:100F200002C01682128208951F93CF93DF93EC01C3
:100F3000162F662321F0643618F013E601C011E085
:100F400060E0CE01E3DF8C81810F8D83DF91CF9153
:100F50001F9108951F93CF93DF93EC01162F6230FA
:100F600020F0643618F013E601C012E060E0CE0114
:100F7000CDDF8D819C81891B810F8D831C83115056
:100F80001B83DF91CF911F9108951F93CF93DF9320
:100F9000EC01162F662321F0643618F013E601C029
:100FA00011E060E0CE01B2DF1F83DF91CF911F918E
:100FB0000895CF93DF93CDB7DEB7E4970FB6F894DB
:100FC000DEBF0FBECDBFCE0101965CD8CE0101962B
:100FD000C3DAFFCFA29FB001B39FC001A39F01D08E
:100FE000B29F700D811D1124911D0895AA1BBB1B7A
:100FF00051E107C0AA1FBB1FA617B70710F0A61B19
:10100000B70B881F991F5A95A9F780959095BC0139
:10101000CD01089597FB072E16F4009406D077FDB6
:1010200008D0E4DF07FC05D03EF4909581959F4FF2
:101030000895709561957F4F0895A1E21A2EAA1B1D
:10104000BB1BFD010DC0AA1FBB1FEE1FFF1FA21778
:10105000B307E407F50720F0A21BB30BE40BF50B75
:10106000661F771F881F991F1A9469F760957095FE
:10107000809590959B01AC01BD01CF010895052E8F
:1010800097FB16F400940FD057FD05D0D6DF07FC70
:1010900002D046F408C050954095309521953F4FB9
:1010A0004F4F5F4F089590958095709561957F4F54
:0A10B0008F4F9F4F0895F894FFCF73
:1010BA0000000000CA02F8FC060206FCF81F3F60A6
:1010CA0040603F1F00080CFEFE00000000007F7F0A
:1010DA000000080C060286FCF86070584E47414032
:1010EA00080C0682C67C3818386040613F1E0080B2
:1010FA00F87EFEFE001C1F13107F7F107E7E424288
:10110A00C2860618386040603F1FE0F89C8682005D
:10111A00001F3F6140613F1E060602C2F23E0E00FA
:10112A00007C7F030000387CC682C67C381E3F6183
:10113A0040613F1E78FC860286FCF8004041613D12
:10114A001F0300E0F81C04FEFE7E7F0504047F7F77
:10115A00FEFE82C6FC38007F7F4040613F1EF8FCDD
:10116A000602060C081F3F6040603818FEFE0202A5
:10117A0006FCF87F7F4040603F1FFEFE4242420667
:10118A00067F7F4040406060FEFE82828206067FC4
:10119A007F000000000000000000000000000000C6
:1011AA000000000000000000000000000060600075
:1011BA000000404040404040400202020202020257
:1011CA00000000000000004122140814224100001F
:1011DA000000000000030C3040300C030000000047
:1011EA000000004649494949493100000080601819
:1011FA000660180601000000000000E0000000017F
:10120A0001010F010101E0E0000000E0E00F0F0022
:10121A0000000F0FE0E0E0E0E0E0E00F0F0F0F0F3B
:10122A000F0FE0E0C0C08080000F0F070703030123
:10123A00000000000000000101010101010101029A
:08124A00040800000000450744
:00000001FF
