:1000000019C033C032C031C0C3C62FC02EC02DC0EE
:1000100019C62BC02AC029C028C027C026C025C0A9
:1000200024C023C022C0C1C13BC2C1C1ECC1C1C1F7
:10003000C2C115C211241FBECFE5D4E0DEBFCDBFC3
:1000400011E0A0E6B0E0EEECF0E102C005900D9208
:10005000A83FB107D9F721E0A8EFB1E001C01D9298
:10006000AC3FB207E1F7AFD730C8CACF682341F041
:100070008F70282F30E050E081E02417350709F019
:1000800080E00895CF93DF93EC0103D6BE01CE014B
:1000900044964CD3BE01CE014A96A1D6CE01849699
:1000A00056D2BE01CE0185961FD7CE018E96DF9126
:1000B000CF915DC58F929F92AF92BF92CF92DF9208
:1000C000EF920F931F93CF93DF934C01D62FC1E094
:1000D000662319F0623009F0C0E054018EE2A80EE8
:1000E000B11CC5018FD5640194E1C90ED11C082F44
:1000F000880F110BEC2E24E040E060E0C60101D433
:10010000C1E0D111C0E00C2F23E140E064E0C60162
:100110001FD322E140E065E0C6011AD3C11104C03B
:10012000C1E0D33009F0C0E0C50158D597FD03C048
:10013000C50154D505C0C50151D591958195910949
:10014000EC2E8C0124E040E066E0C60179D4C401C5
:10015000849605D2082F10E0E12C23E040E06BE00C
:10016000C601CFD300E024E140E06EE0C601F0D24A
:10017000DF91CF911F910F91EF90DF90CF90BF90C3
:10018000AF909F908F900895AF92BF92CF92DF92E1
:10019000EF92FF920F931F93CF93DF935C01D62FC3
:1001A000FC0185A595012C5E3F4F6901813049F026
:1001B00070F08230A9F401E0613009F000E02AE13A
:1001C0000BC001E0613009F000E028E105C001E06A
:1001D000613009F000E029E141E060E0C601B8D2F9
:1001E000C1E0D13009F0C0E0FC2E0C2F20E141E04D
:1001F00061E0C601ADD2F50103A510E0EC2E22E0CE
:1002000041E062E0C60123D30C2F26E141E064E027
:10021000C6019ED2C11106C0EE24E394D43019F079
:10022000E12C01C0EC2EF50104A510E022E041E034
:1002300065E0C6010CD30C2F23E141E067E0C60165
:1002400087D2C11106C0EE24E394D53019F0E12C19
:1002500001C0EC2EF50182A591A5891B082F10E0A5
:1002600022E041E068E0C601F2D20C2F25E141E036
:100270006AE0C6016DD227E141E06BE0C60168D2B9
:10028000C11104C0C1E0D63009F0C0E0F50181A57C
:10029000082F10E0EC2E22E041E06CE0C601D7D23E
:1002A0000F2D25E141E06EE0C60152D2DF91CF91E2
:1002B0001F910F91FF90EF90DF90CF90BF90AF9084
:1002C0000895EF92FF920F931F93CF93DF93EC016A
:1002D00052D58C017E012AE1E20EF11CC701A7D59F
:1002E0009BA1907F39F4CE0146D5801B910B8C32B7
:1002F0009140A0F3DF91CF911F910F91FF90EF906C
:100300000895EC0110E05C0184E1A80EB11C6E01BF
:1003100085E2C80ED11C7E018EE2E80EF11C612F31
:10032000CE01C8DE612FCE012FDFCE01CADF8BA147
:10033000882311F0C501AFD30BA143E060E4802F07
:1003400095DE882349F0812F90E08730910538F7BA
:10035000FC01ED5EFF4F0994112379F1113009F48E
:1003600054C0123009F47DC0133009F49BC014301E
:1003700009F0B3C041E060E4802F78DE882321F0EB
:100380006CA56150C6010AD642E060E48BA16EDE26
:10039000882321F06CA56F5FC60100D643E060E8BA
:1003A0008BA164DE882309F4BACF11E0B8CF13E043
:1003B000B6CF15E0B4CF16E0B2CF41E060E1802FB8
:1003C00055DE882319F063E0C701F0D342E060E115
:1003D0008BA14CDE882319F062E0C701E7D30BA1A3
:1003E00041E060E2802F42DE8111ACC042E060E279
:1003F000802F3CDE8111A6C043E060E88BA136DE91
:10040000882309F48CCF12E08ACF41E060E4802F8A
:100410002DDE882351F08DA5813021F0823029F422
:1004200061E001C060E0C60178D542E060E48BA1E4
:100430001DDE882351F08DA5882321F0813029F419
:1004400062E001C061E0C60168D543E060E88BA1CD
:100450000DDE882309F463CF60E0C6015ED514E0A9
:100460005ECF41E060E4802F01DE882331F0C701D8
:10047000C9D36FEF680FC7014CD342E060E48BA192
:10048000F5DD882331F0C701BDD361E0680FC701F6
:1004900040D343E060E88BA1E9DD882309F43FCF36
:1004A00010E03DCF41E060E4802FE0DD882339F0AB
:1004B000C70194D3BC0161507109C70110D342E058
:1004C00060E48BA1D3DD882321F3C70187D3BC016E
:1004D0006F5F7F4FC70103D3DCCF1530D1F441E00C
:1004E00060E4802FC3DD882331F06AA5615089A5BF
:1004F000681BC60120D542E060E48BA1B7DD8823EC
:1005000009F44CCF6AA56F5F89A5681BC60113D596
:1005100045CF163009F003CF41E060E4802FA6DD1F
:10052000882321F069A56150C6011CD542E060E432
:100530008BA19CDD882309F431CF69A56F5FC601CB
:1005400011D52CCF61E0C70131D356CFDADE24ECD0
:1005500027B927E826B9369AFC0110820895FC01D4
:10056000369912C024B135B1A1E9B0E0A2D5DC01C1
:10057000CB012AE0B695A795979587952A95D1F74F
:10058000808396B1906C96B980810895FC0195B3F3
:1005900081E0892785BB82819381892B39F0828113
:1005A0009381019793838283949A089594980895F0
:1005B000A99868BB95B3842F837024E0829FA00123
:1005C0001124492B45BB00000000000085B3837F48
:1005D00085BB0895A99A68BB95B3842F837024E0E6
:1005E000829FA0011124492B45BB000000000000A0
:1005F00085B3837F85BB0895CF92DF92FF920F93DF
:100600001F93CF93DF9300D0CDB7DEB76C01362FA9
:10061000F02E6A3798F5443088F56D3320F4142FA6
:10062000106101E004C03D53142F106202E0F60196
:100630008481381303C08581181791F0612F6F7082
:100640006854402FC6012A833983B2DF402F398195
:10065000632FC601ADDF3981F601348315832A810A
:10066000FF2021F0622F6095402F02C0402F622FA3
:10067000C601B0DFF60184818F5F84830F900F90F5
:10068000DF91CF911F910F91FF90DF90CF90089550
:100690000F931F93CF93DF93EC0118EB43E0612F8F
:1006A000CE0186DF43E060E0CE0182DF0DE343E070
:1006B00060E0CE018FDF0150D1F71F5F1C3B71F767
:1006C0001C821D8243E068EBCE0172DF43E060E0F4
:1006D000CE01DF91CF911F910F916ACFCF93DF931E
:1006E000EC018FEF87BB88BB84B38F6084BB85B37D
:1006F000807F85BB8C9A949A2FE788E391E0215004
:1007000080409040E1F700C0000043E06FEACE0176
:100710004FDF43E060EACE014BDFCE01B9DF80E47A
:100720009CE99B838A83DF91CF910895CF93DF93D8
:10073000EC01CB0124E630E0398328831B821A8246
:1007400040EA5FE0BE01ECD2CE01DF91CF91C6CF8F
:100750005F926F927F928F929F92AF92BF92CF9251
:10076000DF92EF92FF920F931F93CF93DF937C0161
:10077000562EA22ED02F162F110F110F110F92E00F
:10078000992E910EC42FCC0F611106C020E04C2F82
:1007900061E0610FC70130DF8EE0A89E30011124B7
:1007A000C12CD12CB12CF601E60DF71DEA59FF4FF3
:1007B000692D6C0D0D2F20814C2FC7011DDF8FEF90
:1007C000C81AD80A87E0C816D10469F789E0882ECC
:1007D000810E20E04C2F682DC7010EDFCF5F511036
:1007E00006C061E0610F20E04C2FC70105DF8EE0FD
:1007F0008A9D30018B9D700C1124C12CD12CF601E7
:10080000E60DF71DEA59FF4F692D6C0D0D2F27815D
:100810004C2FC701F1DE8FEFC81AD80A87E0C8163F
:10082000D10469F720E04C2F682DC701E5DEDF9188
:10083000CF911F910F91FF90EF90DF90CF90BF90DD
:10084000AF909F908F907F906F905F9008955F9290
:100850006F927F928F929F92AF92BF92CF92DF92D0
:10086000EF92FF920F931F93CF93DF931F92CDB719
:10087000DEB75C01F42E522E680117FF0AC011E0AA
:10088000160F0E2D2BE164DF5A94D194C194D10838
:10089000612F650D66246A94660E10E08AE0882E4A
:1008A000912C1515E9F0112319F0C114D10479F038
:1008B000C601B401ADD3762E0E2D282F4F2D662DF7
:1008C000C501798345DFC72C7981D72E06C00E2D4F
:1008D00020E14F2D662DC5013BDF1F5F6A94E1CFFC
:1008E0000F90DF91CF911F910F91FF90EF90DF90CC
:1008F000CF90BF90AF909F908F907F906F905F90C0
:1009000008954F925F926F927F928F929F92AF92D3
:10091000BF92CF92DF92EF92FF920F931F93CF93EC
:10092000DF931F92CDB7DEB75C01F42E522E680123
:1009300017FF0AC011E0160F0E2D2BE109DF5A94A4
:10094000D194C194D108612F21E081E090E03AE098
:10095000251540F4AC01349FC001359F900D112442
:100960002F5FF6CF650DC816D90694F5462E77246D
:100970007A94750C10E02AE0822E912C171508F05D
:100980004DC055245A94540C123018F0C114D1049F
:10099000B1F0C601B4013CD3662E0E2D282F4F2D89
:1009A000652DC5017983D4DEC62C7981D72E11112E
:1009B0000CC09EEF592E540C0E2D21E102C00E2DBD
:1009C00020E14F2D652DC501C3DE1F5F452CD6CF1D
:1009D00066246A94660E10E08AE0882E912C151524
:1009E000E9F0112319F0C114D10479F0C601B40162
:1009F0000FD3762E0E2D282F4F2D662DC50179830E
:100A0000A7DEC72C7981D72E06C00E2D20E14F2DF1
:100A1000662DC5019DDE1F5F6A94E1CF0F90DF91C7
:100A2000CF911F910F91FF90EF90DF90CF90BF90EB
:100A3000AF909F908F907F906F905F904F900895B0
:100A4000AF92BF92CF92DF92EF92FF920F931F93DC
:100A5000CF93DF935C01D62FF42E6801C62FC20F0F
:100A6000CD1771F0C1502C2D2F700E2D4F2D6C2FE6
:100A7000C5016EDE84E0D694C7948A95E1F7F0CF85
:100A8000DF91CF911F910F91FF90EF90DF90CF906A
:100A9000BF90AF90089520E43CE9FC0133832283AA
:100AA0000895FC0184818DBD83818CBD8281882362
:100AB000A9F090818181992311F08F5F01C081504D
:100AC000818381818370818392B3E82FF0E0E251CA
:100AD000FE4F892F807F9081892B82BB0895FC0176
:100AE0007683658377FF05C01082719561957109E2
:100AF00002C081E08083613782E0780714F461E707
:100B000072E07195619571097483638381E08283DA
:100B10000895CF93DF93EC01611104C01A82DF9135
:100B2000CF910895262F660F330B440B550B64ECC1
:100B300074EA80E090E0A1D2211580E838074105F1
:100B4000510564F4211580E838078FEF48075807EE
:100B50004CF420E030E84FEF5FEF04C02FEF3FE7A9
:100B600040E050E0B901CE01DF91CF91B8CFCF93F3
:100B7000DF93EC019093F9018093F80119826AE701
:100B800070E1ADDF81B38F6081BB82B3807F82BBB8
:100B90001FBC83E08EBD8C818DBD8B818CBD89B7E0
:100BA000846089BF7894DF91CF910895FC01611131
:100BB00002C012820895613019F4658176818FCF69
:100BC000623019F481E0808303C0633031F4108215
:100BD0008FE89DEF9483838362830895FC01928163
:100BE000913019F4858196810895923029F09330DF
:100BF00031F080E090E0089581E792E008958FE879
:100C00009DEF0895EBDF9C01990F440B550B64ECAD
:100C100074EA80E090E031D2203831054105510579
:100C20005CF420388FEF3807480758074CF420E869
:100C30003FEF4FEF5FEF04C02FE730E040E050E0C0
:100C4000822F08951F920F920FB60F9211242F93A7
:100C50003F934F935F936F937F938F939F93AF9344
:100C6000BF93EF93FF938091F8019091F90119DF01
:100C7000FF91EF91BF91AF919F918F917F916F9174
:100C80005F914F913F912F910F900FBE0F901F904A
:100C90001895FC019093FB018093FA01138A128A44
:100CA0001586148617861686118A108A84E085BDFB
:100CB00081EE84BD89B7806489BF789408950F93CD
:100CC0001F93CF93DF93EC018A899B8901969B8BBD
:100CD0008A8B81EE84BD8E010A5F1F4F2C853D8576
:100CE00021153105A1F08E819F810196821793070E
:100CF00018F49F838E830BC01F821E828881998186
:100D0000DC01ED91FC910190F081E02D0995229696
:100D1000C017D10719F7DF91CF911F910F91089557
:100D2000FC0184859585892B51F086859785892BD3
:100D300041F080899189892B31F482E005C080E0FF
:100D400003C081E001C083E0E80FF11DE80FF11D51
:100D5000178216827183608380EA9FE0BA0144D1D2
:100D60006115710519F075876487089581E090E039
:100D7000958784870895FC0122893389A8EEB3E022
:100D800098D120EA3FE040E050E055D1C9010895F4
:100D90001F920F920FB60F9211242F933F934F93F0
:100DA0005F936F937F938F939F93AF93BF93EF93D3
:100DB000FF938091FA019091FB0181DFFF91EF9108
:100DC000BF91AF919F918F917F916F915F914F9163
:100DD0003F912F910F900FBE0F901F901895FC011F
:100DE00071836083128213821482158217821682A5
:100DF00010861186A598AD9A8F98979A0895FC0150
:100E000083B385FB992790F981E08927879B8260CE
:100E10009381891711F0128207C09281903218F4E1
:100E20009F5F928301C084838383848108951F938D
:100E3000CF93DF93EC01E3DF182F8D8181110BC07D
:100E4000112341F118868881998195DF9F838E83D4
:100E5000812F806119C09885111104C0911113C0B0
:100E6000806612C0911116C08881998184DF2E811D
:100E70003F81821B930B893B9B4060F081E0888718
:100E8000812F806801C080621D838987DF91CF91A7
:100E90001F910895812FF8CFFC019085992329F0A7
:100EA0008281913029F4811103C095989698089514
:100EB0008F5F82839581891740F0128286818F5FD0
:100EC00086839781891708F010869281838198170D
:100ED00010F4969801C0969A92818481981710F424
:100EE00095980895959A0895FC01CB0126EF31E07D
:100EF00031832083959896988D9A8E9A128221E05C
:100F0000238322E024832CE02583168224E1278397
:100F1000108641E050E0BF0103CFFC0180858111C4
:100F200004C0662311F0168212826087611102C02C
:100F30001682128208950F931F93CF938C01C62FB0
:100F4000662321F0643618F0C3E601C0C1E060E01A
:100F5000C801E3DFF8018481C80FC583CF911F91D9
:100F60000F9108950F931F93CF938C01C62F62307A
:100F700020F0643618F0C3E601C0C2E060E0C801AA
:100F8000CCDFF80185819481891B8C0F8583C48314
:100F9000C150C383CF911F910F9108950F931F9359
:100FA000CF938C01C62F662321F0643618F0C3E678
:100FB00001C0C1E060E0C801B0DFF801C783CF9194
:100FC0001F910F910895CF93DF93CDB7DEB7E597CB
:100FD0000FB6F894DEBF0FBECDBFCE01019652D83A
:100FE000CE010196B3DAFFCFAA1BBB1B51E107C0AC
:100FF000AA1FBB1FA617B70710F0A61BB70B881FA9
:10100000991F5A95A9F780959095BC01CD01089537
:1010100097FB072E16F4009406D077FD08D0E4DF86
:1010200007FC05D03EF4909581959F4F08957095EB
:1010300061957F4F0895A1E21A2EAA1BBB1BFD01EB
:101040000DC0AA1FBB1FEE1FFF1FA217B307E407A7
:10105000F50720F0A21BB30BE40BF50B661F771FFF
:10106000881F991F1A9469F76095709580959095DF
:101070009B01AC01BD01CF010895052E97FB16F42D
:1010800000940FD057FD05D0D6DF07FC02D046F400
:1010900008C050954095309521953F4F4F4F5F4F79
:1010A000089590958095709561957F4F8F4F9F4FD4
:1010B0000895A29FB001B39FC001A39F01D0B29F2A
:0E10C000700D811D1124911D0895F894FFCF2D
:1010CE0000000000C602F8FC060206FCF81F3F6096
:1010DE0040603F1F00080CFEFE00000000007F7FF6
:1010EE000000080C060286FCF86070584E4741401E
:1010FE00080C0682C67C3818386040613F1E00809E
:10110E00F87EFEFE001C1F13107F7F107E7E424273
:10111E00C2860618386040603F1FE0F89C86820049
:10112E00001F3F6140613F1E060602C2F23E0E00E6
:10113E00007C7F030000387CC682C67C381E3F616F
:10114E0040613F1E78FC860286FCF8004041613DFE
:10115E001F0300E0F81C04FEFE7E7F0504047F7F63
:10116E00FEFE82C6FC38007F7F4040613F1EF8FCC9
:10117E000602060C081F3F6040603818FEFE020291
:10118E0006FCF87F7F4040603F1FFEFE4242420653
:10119E00067F7F4040406060FEFE82828206067FB0
:1011AE007F000000000000000000000000000000B2
:1011BE000000000000000000000000000060600061
:1011CE000000404040404040400202020202020243
:1011DE00000000000000004122140814224100000B
:1011EE000000000000030C3040300C030000000033
:1011FE000000004649494949493100000080601805
:10120E000660180601000000000000E0000000016A
:10121E0001010F010101E0E0000000E0E00F0F000E
:10122E0000000F0FE0E0E0E0E0E0E00F0F0F0F0F27
:10123E000F0FE0E0C0C08080000F0F07070303010F
:10124E000000000000000001010101010101010286
:08125E000408000000004C0729
:00000001FF
